:020000040800F2
:100000000028002045160008D5150008DB1500085B
:10001000E1150008E7150008ED15000800000000D4
:10002000000000000000000000000000F3150008C0
:10003000FF150008000000000B1600081716000846
:100040008D1600088D1600088D1600088D16000804
:100050008D1600088D1600088D1600088D160008F4
:100060008D1600088D1600088D1600088D160008E4
:100070008D1600088D1600088D1600088D160008D4
:100080008D1600088D1600088D1600088D160008C4
:100090008D1600088D1600088D1600088D160008B4
:1000A0008D1600088D1600088D1600088D160008A4
:1000B000251600088D160008000000008D160008A7
:1000C0008D16000800000000000000008D160008DA
:1000D000000000008D1600088D16000800000000CA
:1000E0008D1600088D1600088D160008000000000F
:1000F0000000000000000000000000000000000000
:0C01000000000000000000005FF808F1A3
:10010C0010B5054C237833B9044B13B10448AFF345
:10011C0000800123237010BD480000200000000067
:10012C00D42C000808B5034B1BB103490348AFF3AB
:10013C00008008BD000000004C000020D42C0008FA
:10014C0080B400AF064B1B68012B04D1044B00227A
:10015C001A60012300E000231846BD4680BC70479E
:10016C006400002080B400AF064B1B68012B04D147
:10017C00044B00221A60012300E000231846BD4600
:10018C0080BC70476800002080B400AF064B1B6831
:10019C00012B04D1044B00221A60012300E0002340
:1001AC001846BD4680BC70476C00002080B582B0FC
:1001BC0000AF78607B68002B0AD14FF400611448C3
:1001CC0001F04AFD03461946124A7B6842F8231097
:1001DC007B68012B0AD14FF480510D4801F03CFD96
:1001EC00034619460B4A7B6842F823107B68022BA6
:1001FC000AD14FF40051064801F02EFD0346194672
:10020C00044A7B6842F8231000BF0837BD4680BD06
:10021C00000801401800002080B483B000AF786063
:10022C007B68002B02D10A4B01221A607B68012BE0
:10023C0002D1084B01221A607B68022B02D1064BBB
:10024C0001221A6000BF0C37BD4680BC704700BF4E
:10025C0064000020680000206C00002080B582B093
:10026C0000AF00237B6012E0324A7B6852F82320F7
:10027C0031497B6841F82320304A7B6852F82320AF
:10028C002C497B6841F823207B6801337B607B68B9
:10029C00022BE9DD00233B6044E0264A3B6852F820
:1002AC00232025493B6841F82320244A3B6852F817
:1002BC00232020493B6841F823203868FFF776FF5C
:1002CC001D4A3B6852F823201A493B6851F82330E9
:1002DC009A4224D1174A3B6852F8232017493B68AD
:1002EC0051F823309A421AD1154A3B6852F8232010
:1002FC0012493B6851F823309A4210D00F4A3B68A0
:10030C0052F823200E493B6841F823200B4A3B68E6
:10031C0052F82330012B02D13868FFF77DFF3B6880
:10032C0001333B603B68022BB7DD00BF00BF0837D1
:10033C00BD4680BD0C0000200000002018000020ED
:10034C0024000020B0B500AF904B1B68042B00F2CA
:10035C000B8301A252F823F079030008F303000881
:10036C00E5060008C5070008D90800081E2001F0A2
:10037C005BF8282001F074F8844B01221A60844B3E
:10038C001B68844A1360844B1B68844A1360844B3B
:10039C001B68844A136001222021834801F073FCFE
:1003AC0001224021804801F06EFC012280217E4810
:1003BC0001F069FC01224FF480717B4801F063FC71
:1003CC0001224FF40071784801F05DFC01224FF4DA
:1003DC008061754801F057FC744B00221A60744B15
:1003EC0000221A60C9E26A4B1A686B4B1B681A44EC
:1003FC006B4B1B6813446F4A13606C4B1B68002BD0
:10040C0003D16C4B1B68694A1360694B1B68002B4A
:10041C0003D1684B1B68664A13605D4B1A68634BCB
:10042C001B689A421CDA614B1A68624B1B689A4231
:10043C0016DC002220215C4801F025FC0122402121
:10044C00594801F020FC01228021574801F01BFC87
:10045C00564B1A684E4B1B68D31A574A13603FE031
:10046C004F4B1A68514B1B689A421CDA4F4B1A6857
:10047C00474B1B689A4216DC012220214A4801F0A6
:10048C0002FC00224021484801F0FDFB01228021A2
:10049C00454801F0F8FB454B1A68414B1B68D31AD1
:1004AC00454A13601CE0414B1B68002B18DD3F4B89
:1004BC001A683B4B1B689A4212DC012220213A48F5
:1004CC0001F0E1FB01224021374801F0DCFB002266
:1004DC008021354801F0D7FB344B1B68364A13603A
:1004EC002B4B1A682E4B1B681A44314B1B689A42D3
:1004FC0022DA2F4B1A682F4B1B689A421CDC012204
:10050C004FF48071284801F0BEFB00224FF40071BB
:10051C00254801F0B8FB01224FF48061224801F01C
:10052C00B2FB234B1A681A4B1B68D21A1C4B1B6864
:10053C00D31A224A136063E0154B1A681C4B1B68D4
:10054C009A423DDA124B1A68154B1B681A44184B29
:10055C001B689A4234DB01224FF48071124801F07F
:10056C0092FB01224FF400710F4801F08CFB00222A
:10057C004FF480610C4801F086FB0D4B1A68044B5C
:10058C001B68D31A0D4A13603AE000BF900000209C
:10059C003000002084000020340000208C0000205B
:1005AC003800002088000020000801407400002062
:1005BC0078000020700000207C00002080000020CB
:1005CC00B54B1B68002B1BDDB34B1A68B34B1B6878
:1005DC009A4215DC00224FF48071B14801F053FBB4
:1005EC0001224FF40071AE4801F04DFB01224FF493
:1005FC008061AB4801F047FBA74B1B68A94A13600D
:10060C00A94B1B68A94A82FB03129210DB17D41A60
:10061C00A54B1A68A54B83FB02139910D317C91A63
:10062C000B469B000B445B00D11A9E4B1B689F4AE8
:10063C0082FB03029210DB17D51A9A4B1A689B4B5C
:10064C0083FB02039810D317C01A03469B00034484
:10065C005B00D01A03462A46204600F04BFD944B13
:10066C001B68012B0DD1934B1B68013B914A136006
:10067C00894B1B68013B884A13604FF47A7000F079
:10068C00D3FEFFF75DFD0346012B40F06F818A4BD3
:10069C0002221A6001224FF40071814801F0F3FA32
:1006AC0001224FF480717E4801F0EDFA01224021C5
:1006BC007B4801F0E8FA01222021794801F0E3FAA5
:1006CC0001224FF48061764801F0DDFA012280218D
:1006DC00734801F0D8FA49E1784B1B68734A82FBE6
:1006EC0003129210DB17D01A744B1A686F4B83FBF2
:1006FC0002139910D317C91A0B469B000B445B00CD
:10070C00D11A0B4602460221002000F0F3FC6C4B80
:10071C001B68012B0BD12021614801F0CCFA4FF45E
:10072C0080715F4801F0C7FAFA2000F099FEFFF7DC
:10073C0007FD0346012B23D15F4B03221A600122D4
:10074C004FF40071564801F09EFA01224FF480716B
:10075C00534801F098FA01224021514801F093FAD4
:10076C00012220214E4801F08EFA01224FF48061C3
:10077C004B4801F088FA01228021494801F083FAA4
:10078C00FFF7F0FC0346012B0BD14C4B1B680133DC
:10079C004A4A1360494B1B68632B02DD474B00220E
:1007AC001A60FFF7F1FC0346012B40F0E180434B4C
:1007BC001B683A4A1360DBE0424B1B683B4A82FBE6
:1007CC0003129210DB17D01A3E4B1A68374B83FB7F
:1007DC0002139910D317C91A0B469B000B445B00EC
:1007EC00D11A0B4602460321002000F083FC344B47
:1007FC001B68012B0BD18021294801F05CFA4FF4C6
:10080C008061274801F057FAFA2000F029FEFFF723
:10081C0097FC0346012B23D1274B04221A6001229B
:10082C004FF400711E4801F02EFA01224FF4807132
:10083C001B4801F028FA01224021194801F023FA43
:10084C0001222021164801F01EFA01224FF480618A
:10085C00134801F018FA01228021114801F013FA13
:10086C00FFF780FC0346012B0BD1164B1B680133A1
:10087C00144A1360134B1B68632B02DD114B0022CF
:10088C001A60FFF781FC0346012B73D10D4B1B68DB
:10089C000D4A13606EE000BF78000020300000208D
:1008AC0000080140800000207C000020676666661E
:1008BC00B000002074000020900000208400002074
:1008CC00B800002088000020380000202C4B1B684A
:1008DC002C4A82FB03129210DB17D01A284B1A6891
:1008EC00284B83FB02139910D317C91A0B469B0094
:1008FC000B445B00D11A0B4602460421002000F089
:10090C00F9FB214B1B68012B0BD140211F4801F037
:10091C00D2F94FF400711D4801F0CDF9FA2000F026
:10092C009FFDFFF70DFC0346012B02D1184B002253
:10093C001A60FFF717FC0346012B0BD1104B1B68F9
:10094C0001330F4A13600E4B1B68632B02DD0C4BFB
:10095C0000221A60FFF718FC0346012B0CD1084B40
:10096C001B680C4A136007E000BF06E000BF04E000
:10097C0000BF02E000BF00E000BF00BFB0BD00BF81
:10098C008C00002067666666B800002000080140F5
:10099C00900000203400002080B582B000AF786059
:1009AC007B68002B23D100220121C04801F06BF998
:1009BC0000220221BD4801F066F900220421BB4847
:1009CC0001F061F900220821B84801F05CF900221D
:1009DC001021B64801F057F900222021B34801F04C
:1009EC0052F901224021B14801F04DF983E17B68B5
:1009FC00012B23D101220121AC4801F044F9002242
:100A0C000221AA4801F03FF900220421A74801F075
:100A1C003AF901220821A54801F035F901221021EB
:100A2C00A24801F030F901222021A04801F02BF955
:100A3C00012240219D4801F026F95CE17B68022BE4
:100A4C0023D100220121994801F01DF90022022135
:100A5C00964801F018F901220421944801F013F989
:100A6C0000220821914801F00EF9002210218F4834
:100A7C0001F009F9012220218C4801F004F900222F
:100A8C0040218A4801F0FFF835E17B68032B23D124
:100A9C0000220121854801F0F6F80022022183484A
:100AAC0001F0F1F800220421804801F0ECF800225A
:100ABC0008217E4801F0E7F8012210217B4801F063
:100ACC00E2F801222021794801F0DDF800224021D2
:100ADC00764801F0D8F80EE17B68042B23D1012273
:100AEC000121724801F0CFF8002202216F4801F079
:100AFC00CAF8002204216D4801F0C5F80122082132
:100B0C006A4801F0C0F801221021684801F0BBF8D6
:100B1C0000222021654801F0B6F8002240216348EC
:100B2C0001F0B1F8E7E07B68052B23D1002201210D
:100B3C005E4801F0A8F8012202215C4801F0A3F8FC
:100B4C0000220421594801F09EF800220821574840
:100B5C0001F099F801221021544801F094F8002278
:100B6C002021524801F08FF8002240214F4801F01B
:100B7C008AF8C0E07B68062B23D1002201214B4868
:100B8C0001F081F801220221484801F07CF8002292
:100B9C000421464801F077F800220821434801F06F
:100BAC0072F800221021414801F06DF8002220213A
:100BBC003E4801F068F8002240213C4801F063F8FF
:100BCC0099E07B68072B23D100220121374801F0E3
:100BDC005AF800220221354801F055F80022042170
:100BEC00324801F050F801220821304801F04BF84E
:100BFC00012210212D4801F046F8012220212B481A
:100C0C0001F041F801224021284801F03CF872E043
:100C1C007B68082B23D100220121244801F033F8F2
:100C2C0000220221214801F02EF8002204211F4845
:100C3C0001F029F8002208211C4801F024F80022B8
:100C4C0010211A4801F01FF800222021174801F04A
:100C5C001AF800224021154801F015F84BE07B688A
:100C6C00092B25D100220121104801F00CF800229B
:100C7C0002210E4801F007F8002204210B4801F074
:100C8C0002F800220821094800F0FDFF0122102182
:100C9C00064800F0F8FF00222021044800F0F3FF82
:100CAC0000224021014800F0EEFF24E0000C01403E
:100CBC0001220121124800F0E6FF01220221104816
:100CCC0000F0E1FF012204210D4800F0DCFF0122BD
:100CDC0008210B4800F0D7FF01221021084800F032
:100CEC00D2FF01222021064800F0CDFF0122402135
:100CFC00034800F0C8FF00BF0837BD4680BD00BFE9
:100D0C00000C014080B582B000AF78607B68002B8E
:100D1C0029D100228021C84800F0B5FF00224FF4F1
:100D2C008071C54800F0AFFF00224FF40071C2483B
:100D3C0000F0A9FF00224FF48061BF4800F0A3FF30
:100D4C0000224FF40061BC4800F09DFF00224FF4DC
:100D5C008051B94800F097FF01224FF40051B6487A
:100D6C0000F091FFC0E17B68012B29D10122802189
:100D7C00B14800F088FF00224FF48071AE4800F0BB
:100D8C0082FF00224FF40071AB4800F07CFF01227F
:100D9C004FF48061A84800F076FF01224FF4006107
:100DAC00A54800F070FF01224FF48051A24800F0DA
:100DBC006AFF01224FF400519F4800F064FF93E159
:100DCC007B68022B29D1002280219B4800F05BFF1D
:100DDC0000224FF48071984800F055FF01224FF427
:100DEC000071954800F04FFF00224FF4806192484B
:100DFC0000F049FF00224FF400618F4800F043FFE0
:100E0C0001224FF480518C4800F03DFF00224FF43A
:100E1C000051894800F037FF66E17B68032B29D12C
:100E2C0000228021844800F02EFF00224FF48071B4
:100E3C00814800F028FF00224FF400717E4800F03A
:100E4C0022FF00224FF480617B4800F01CFF01223E
:100E5C004FF40061784800F016FF01224FF48051E6
:100E6C00754800F010FF00224FF40051724800F05A
:100E7C000AFF39E17B68042B29D1012280216E48BD
:100E8C0000F001FF00224FF480716B4800F0FBFE74
:100E9C0000224FF40071684800F0F5FE01224FF477
:100EAC008061654800F0EFFE01224FF4006162485A
:100EBC0000F0E9FE00224FF480515F4800F0E3FEA1
:100ECC0000224FF400515C4800F0DDFE0CE17B6821
:100EDC00052B29D100228021574800F0D4FE012295
:100EEC004FF48071544800F0CEFE00224FF4007194
:100EFC00514800F0C8FE00224FF480614E4800F0CB
:100F0C00C2FE01224FF400614B4800F0BCFE0022EF
:100F1C004FF48051484800F0B6FE00224FF40051C7
:100F2C00454800F0B0FEDFE07B68062B29D100229B
:100F3C008021414800F0A7FE01224FF480713E4809
:100F4C0000F0A1FE00224FF400713B4800F09BFE24
:100F5C0000224FF48061384800F095FE00224FF4D7
:100F6C000061354800F08FFE00224FF4805132486A
:100F7C0000F089FE00224FF400512F4800F083FE50
:100F8C00B2E07B68072B29D1002280212A4800F08F
:100F9C007AFE00224FF48071274800F074FE002284
:100FAC004FF40071244800F06EFE01224FF4806172
:100FBC00214800F068FE01224FF400611E4800F049
:100FCC0062FE01224FF480511B4800F05CFE0122AE
:100FDC004FF40051184800F056FE85E07B68082B52
:100FEC002CD100228021144800F04DFE00224FF439
:100FFC008071114800F047FE00224FF400710E483A
:10100C0000F041FE00224FF480610B4800F03BFEE3
:10101C0000224FF40061084800F035FE00224FF426
:10102C008051054800F02FFE00224FF40051024879
:10103C0000F029FE58E000BF000C01407B68092B32
:10104C0029D1002280212A4800F01DFE00224FF4F5
:10105C008071274800F017FE00224FF400712448DD
:10106C0000F011FE00224FF48061214800F00BFECD
:10107C0001224FF400611E4800F005FE00224FF4DF
:10108C0080511B4800F0FFFD00224FF4005118481E
:10109C0000F0F9FD28E001228021154800F0F3FD55
:1010AC0001224FF48071124800F0EDFD01224FF443
:1010BC0000710F4800F0E7FD01224FF480610C48ED
:1010CC0000F0E1FD01224FF40061094800F0DBFD66
:1010DC0001224FF48051064800F0D5FD01224FF457
:1010EC000051034800F0CFFD00BF0837BD4680BD5E
:1010FC00000C014080B485B000AFF860B9607A6034
:10110C003B60084AFB681360064ABB685360054A9B
:10111C007B689360034A3B68D36000BF1437BD46BD
:10112C0080BC70479400002080B582B000AF78601E
:10113C007B68002B03D07B68012B17D02DE0194B5B
:10114C001B681846FFF728FC164B5B681846FFF720
:10115C00D9FD00224FF48041134800F094FD012288
:10116C004FF40041104800F08EFD16E00D4B9B68CB
:10117C001846FFF711FC0B4BDB681846FFF7C2FD56
:10118C0001224FF48041084800F07DFD00224FF40D
:10119C000041054800F077FD00BF00BF0837BD4691
:1011AC0080BD00BF940000200008014080B582B0D3
:1011BC0000AF00F067FA00F02BF800F0B1F800F087
:1011CC0063F8104801F0BCF90F4B00221A600023A1
:1011DC007B600A2000F00CF90C4B1B68012B0ED124
:1011EC007868FFF7A1FF7B6801337B607B68022B7B
:1011FC0001D100237B604FF4FA7000F0F9F8FFF78F
:10120C00A1F8E9E7BC00002090000020A800002015
:10121C0080B590B000AF07F11803282200211846C2
:10122C0001F04AFD3B1D00221A605A609A60DA6098
:10123C001A610223BB610123BB621023FB620023F2
:10124C007B6307F11803184600F04EFD0346002B94
:10125C0001D000F0C7F80F237B600023BB60002394
:10126C00FB6000233B6100237B613B1D0021184682
:10127C0000F0BAFF0346002B01D000F0B3F800BF1A
:10128C004037BD4680BD000080B586B000AF07F189
:10129C00080300221A605A609A60DA603B4600220A
:1012AC001A605A601D4B4FF080421A601B4B002293
:1012BC005A601A4B00229A60184B4FF6FF72DA6094
:1012CC00164B00221A61154B00229A61134801F04B
:1012DC00E7F80346002B01D000F084F84FF480535C
:1012EC00BB6007F1080319460C4801F07DFA034670
:1012FC00002B01D000F076F800233B6000237B60CC
:10130C003B461946054801F049FC0346002B01D029
:10131C0000F068F800BF1837BD4680BDBC00002047
:10132C0080B586B000AF07F1080300221A605A603E
:10133C009A60DA60224B9B69214A43F00403936163
:10134C001F4B9B6903F004037B607B681C4B9B6900
:10135C001B4A43F008039361194B9B6903F0080384
:10136C003B603B6800224FF6E071164800F08BFCA6
:10137C00002243F6FF71144800F085FC4FF6E07331
:10138C00BB600123FB6000233B6102237B6107F1FF
:10139C00080319460B4800F0E5FA43F6FF73BB60EF
:1013AC000123FB6000233B6102237B6107F10803EF
:1013BC001946054800F0D6FA00BF1837BD4680BD67
:1013CC000010024000080140000C014080B582B0C2
:1013DC0000AF786000F060F8FEF740FF00BF083700
:1013EC00BD4680BD80B400AF72B600BFFEE7000002
:1013FC0080B483B000AF78607B68084A82FB03122C
:10140C009210DB17D31A064A1360064B00221A609F
:10141C0000BF0C37BD4680BC704700BF6766666670
:10142C00A4000020A800002080B483B000AF786036
:10143C007B68084A82FB03129210DB17D31A064A08
:10144C001360064B00221A6000BF0C37BD4680BCEF
:10145C00704700BF67666666AC000020B0000020D5
:10146C0080B483B000AF78607B68084A82FB0312BB
:10147C009210DB17D31A064A1360064B00221A602F
:10148C0000BF0C37BD4680BC704700BF6766666600
:10149C00B4000020B800002080B400AF194B1B68CA
:1014AC00002B0BDD174B1B68013B164A1360154BC9
:1014BC001B68002B02DC144B01221A60134B1B68B7
:1014CC00002B0BDD114B1B68013B104A13600F4BBB
:1014DC001B68002B02DC0E4B01221A600D4B1B68A3
:1014EC00002B0BDD0B4B1B68013B0A4A1360094BAD
:1014FC001B68002B02DC084B01221A6000BFBD46A2
:10150C0080BC7047A4000020A8000020AC00002084
:10151C00B0000020B4000020B800002080B485B0DA
:10152C0000AF154B9B69144A43F001039361124BB6
:10153C009B6903F00103BB60BB680F4BDB690E4A70
:10154C0043F08053D3610C4BDB6903F080537B6019
:10155C007B680A4B5B68FB60FB6823F0E063FB6015
:10156C00FB6843F08063FB60044AFB68536000BF78
:10157C001437BD4680BC704700100240000001408B
:10158C0080B584B000AF78607B681B68B3F1804F86
:10159C0013D10C4BDB690B4A43F00103D361094BAC
:1015AC00DB6903F00103FB60FB68002200211C20B7
:1015BC0000F0A1F91C2000F0BAF900BF1037BD46AD
:1015CC0080BD00BF0010024080B400AFFEE780B4C5
:1015DC0000AFFEE780B400AFFEE780B400AFFEE7DB
:1015EC0080B400AFFEE780B400AF00BFBD4680BC46
:1015FC00704780B400AF00BFBD4680BC704780B45C
:10160C0000AF00BFBD4680BC704780B500AF00F096
:10161C007FF800BF80BD000080B500AF024800F02D
:10162C00DBFF00BF80BD00BFBC00002080B400AF5A
:10163C0000BFBD4680BC7047FFF7F8FF0B480C4954
:10164C000C4A002302E0D458C4500433C4188C4212
:10165C00F9D3094A094C002301E013600432A24279
:10166C00FBD301F005FBFFF7A1FD70470000002044
:10167C0048000020182D0008480000200801002018
:10168C00FEE7000080B500AF084B1B68074A43F02B
:10169C0010031360032000F023F90F2000F008F86A
:1016AC00FFF73CFF0023184680BD00BF002002401E
:1016BC0080B582B000AF7860124B1A68124B1B7861
:1016CC0019464FF47A73B3FBF1F3B2FBF3F31846FC
:1016DC0000F03BF90346002B01D001230EE07B68A0
:1016EC000F2B0AD8002279684FF0FF3000F003F975
:1016FC00064A7B681360002300E001231846083774
:10170C00BD4680BD3C00002044000020400000206D
:10171C0080B400AF054B1B781A46054B1B6813446D
:10172C00034A136000BFBD4680BC704744000020D4
:10173C000401002080B400AF024B1B681846BD4664
:10174C0080BC70470401002080B485B000AF786085
:10175C007B6803F00703FB600C4BDB68BB60BA686B
:10176C004FF6FF031340BB60FB681A02BB681343C0
:10177C0043F0BF6343F40033BB60044ABB68D360DF
:10178C0000BF1437BD4680BC704700BF00ED00E0C1
:10179C0080B400AF044BDB681B0A03F00703184648
:1017AC00BD4680BC704700BF00ED00E080B483B044
:1017BC0000AF0346FB7197F90730002B0BDBFB796D
:1017CC0003F01F02064997F907305B09012000FA64
:1017DC0002F241F8232000BF0C37BD4680BC704795
:1017EC0000E100E080B483B000AF03463960FB71C8
:1017FC0097F90730002B0ADB3B68DAB20C4997F9F2
:10180C0007301201D2B20B4483F800230AE03B6884
:10181C00DAB20849FB7903F00F03043B1201D2B290
:10182C000B441A7600BF0C37BD4680BC704700BF16
:10183C0000E100E000ED00E080B489B000AFF8609A
:10184C00B9607A60FB6803F00703FB61FB69C3F1C5
:10185C000703042B28BF0423BB61FB690433062B4D
:10186C0002D9FB69033B00E000237B614FF0FF32A0
:10187C00BB6902FA03F3DA43BB681A407B699A40EE
:10188C004FF0FF317B6901FA03F3D9437B680B40BE
:10189C00134318462437BD4680BC704780B582B0D0
:1018AC0000AF78607B68013BB3F1807F01D30123EB
:1018BC000FE00A4A7B68013B53600F214FF0FF3069
:1018CC00FFF790FF054B00229A60044B07221A6029
:1018DC00002318460837BD4680BD00BF10E000E06D
:1018EC0080B582B000AF78607868FFF72DFF00BF3D
:1018FC000837BD4680BD80B586B000AF0346B960E1
:10190C007A60FB7300237B61FFF742FF78617A6892
:10191C00B9687869FFF790FF024697F90F301146C6
:10192C001846FFF75FFF00BF1837BD4680BD80B576
:10193C0082B000AF0346FB7197F907301846FFF7EA
:10194C0035FF00BF0837BD4680BD80B582B000AF03
:10195C0078607868FFF7A2FF034618460837BD4643
:10196C0080BD000080B48BB000AF7860396000237C
:10197C007B6200233B6248E101227B6A02FA03F39B
:10198C00FB613B681B68FA691340BB61BA69FB6970
:10199C009A4240F037813B685B68A34A93425ED021
:1019AC00A14A934275D8A14A934258D09F4A934278
:1019BC006FD89F4A934252D09D4A934269D89D4A10
:1019CC0093424CD09B4A934263D89B4A934246D055
:1019DC00994A93425DD8122B2AD8122B59D801A2BE
:1019EC0052F823F06B1A0008451A0008571A000821
:1019FC00991A00089F1A00089F1A00089F1A0008DD
:101A0C009F1A00089F1A00089F1A00089F1A0008C6
:101A1C009F1A00089F1A00089F1A00089F1A0008B6
:101A2C009F1A00089F1A00084D1A0008611A000836
:101A3C00824A934213D02CE03B68DB683B6229E07E
:101A4C003B68DB6804333B6224E03B68DB680833AB
:101A5C003B621FE03B68DB680C333B621AE03B687F
:101A6C009B68002B02D104233B6213E03B689B680C
:101A7C00012B05D108233B627B68FA691A6109E0E6
:101A8C0008233B627B68FA695A6103E000233B62DE
:101A9C0000E000BFBB69FF2B01D87B6801E07B68CD
:101AAC0004337B61BB69FF2B02D87B6A9B0002E08D
:101ABC007B6A083B9B003B617B691A680F213B6981
:101ACC0001FA03F3DB431A40396A3B6901FA03F369
:101ADC001A437B691A603B685B6803F08053002BE8
:101AEC0000F09080564B9B69554A43F0010393617B
:101AFC00534B9B6903F00103BB60BB68514A7B6A83
:101B0C009B08023352F82330FB607B6A03F003031B
:101B1C009B000F2202FA03F3DB43FA681340FB60CD
:101B2C007B68494A93420DD07B68484A934207D060
:101B3C007B68474A934201D1022304E0032302E06D
:101B4C00012300E000237A6A02F003029200934022
:101B5C00FA681343FB603B497B6A9B080233FA68C3
:101B6C0041F823203B685B6803F48013002B06D0FC
:101B7C00384B9A683749BB6913438B6006E0354B89
:101B8C009A68BB69DB43334913408B603B685B68E5
:101B9C0003F40013002B06D02E4BDA682D49BB69D9
:101BAC001343CB6006E02B4BDA68BB69DB43294956
:101BBC001340CB603B685B6803F40033002B06D00A
:101BCC00244B5A682349BB6913434B6006E0214BF5
:101BDC005A68BB69DB431F4913404B603B685B6829
:101BEC0003F48033002B06D01A4B1A681949BB69D1
:101BFC0013430B6006E0174B1A68BB69DB431549AE
:101C0C0013400B607B6A01337B623B681A687B6A0A
:101C1C0022FA03F3002B7FF4AFAE00BF00BF2C37CA
:101C2C00BD4680BC704700BF000032100000311070
:101C3C0000002210000021100000121000001110F2
:101C4C00001002400000014000080140000C01405F
:101C5C00001001400004014080B485B000AF7860F2
:101C6C000B467B807B689A687B881340002B02D0E4
:101C7C000123FB7301E00023FB73FB7B1846143735
:101C8C00BD4680BC704780B483B000AF78600B4613
:101C9C007B8013467B707B78002B03D07A887B6823
:101CAC001A6103E07B881A047B681A6100BF0C3749
:101CBC00BD4680BC704780B485B000AF78600B46E1
:101CCC007B807B68DB68FB607A88FB6813401A04B6
:101CDC00FB68D9437B880B401A437B681A6100BFB1
:101CEC001437BD4680BC704780B586B000AF7860B5
:101CFC007B68002B01D101236CE27B681B6803F02D
:101D0C000103002B00F08780924B5B6803F00C03FF
:101D1C00042B0CD08F4B5B6803F00C03082B12D1F7
:101D2C008C4B5B6803F48033B3F5803F0BD1894B4C
:101D3C001B6803F40033002B6CD07B685B68002BB2
:101D4C0068D1012346E27B685B68B3F5803F06D11E
:101D5C00804B1B687F4A43F4803313602EE07B6812
:101D6C005B68002B0CD17B4B1B687A4A23F48033C5
:101D7C001360784B1B68774A23F4802313601DE0B3
:101D8C007B685B68B3F5A02F0CD1724B1B68714A52
:101D9C0043F4802313606F4B1B686E4A43F480330B
:101DAC0013600BE06B4B1B686A4A23F4803313609F
:101DBC00684B1B68674A23F4802313607B685B685D
:101DCC00002B13D0FFF7B6FC386108E0FFF7B2FC2C
:101DDC0002463B69D31A642B01D90323FAE15D4B0C
:101DEC001B6803F40033002BF0D014E0FFF7A2FCC7
:101DFC00386108E0FFF79EFC02463B69D31A642B5E
:101E0C0001D90323E6E1534B1B6803F40033002B89
:101E1C00F0D100E000BF7B681B6803F00203002BCD
:101E2C0063D04C4B5B6803F00C03002B0BD0494B7D
:101E3C005B6803F00C03082B1CD1464B5B6803F466
:101E4C008033002B16D1434B1B6803F00203002B8D
:101E5C0005D07B681B69012B01D00123BAE13D4BF6
:101E6C001B6823F0F8027B685B69DB00394913437C
:101E7C000B603AE07B681B69002B20D0364B0122AB
:101E8C001A60FFF757FC386108E0FFF753FC024675
:101E9C003B69D31A022B01D903239BE12D4B1B6801
:101EAC0003F00203002BF0D02A4B1B6823F0F8023E
:101EBC007B685B69DB00274913430B6015E0264BFD
:101ECC0000221A60FFF736FC386108E0FFF732FC9D
:101EDC0002463B69D31A022B01D903237AE11D4B2D
:101EEC001B6803F00203002BF0D17B681B6803F026
:101EFC000803002B3AD07B689B69002B19D0174B39
:101F0C0001221A60FFF716FC386108E0FFF712FC9B
:101F1C0002463B69D31A022B01D903235AE10D4B1C
:101F2C005B6A03F00203002BF0D0012000F09AFA58
:101F3C001CE00A4B00221A60FFF7FCFB38610FE033
:101F4C00FFF7F8FB02463B69D31A022B08D903238F
:101F5C0040E100BF001002400000424280044242B7
:101F6C009E4B5B6A03F00203002BE9D17B681B6874
:101F7C0003F00403002B00F0A6800023FB75974BA5
:101F8C00DB6903F08053002B0DD1944BDB69934A32
:101F9C0043F08053D361914BDB6903F08053BB60FA
:101FAC00BB680123FB758E4B1B6803F48073002BFD
:101FBC0018D18B4B1B688A4A43F480731360FFF76C
:101FCC00B9FB386108E0FFF7B5FB02463B69D31A51
:101FDC00642B01D90323FDE0814B1B6803F4807350
:101FEC00002BF0D07B68DB68012B06D17B4B1B6A86
:101FFC007A4A43F0010313622DE07B68DB68002B07
:10200C000CD1764B1B6A754A23F001031362734B98
:10201C001B6A724A23F0040313621CE07B68DB68C2
:10202C00052B0CD16D4B1B6A6C4A43F004031362F5
:10203C006A4B1B6A694A43F0010313620BE0674B5E
:10204C001B6A664A23F001031362644B1B6A634AE2
:10205C0023F0040313627B68DB68002B15D0FFF7B9
:10206C0069FB38610AE0FFF765FB02463B69D31A4E
:10207C0041F28832934201D90323ABE0574B1B6AE0
:10208C0003F00203002BEED014E0FFF753FB386192
:10209C000AE0FFF74FFB02463B69D31A41F2883244
:1020AC00934201D9032395E04C4B1B6A03F00203C6
:1020BC00002BEED1FB7D012B05D1484BDB69474A48
:1020CC0023F08053D3617B68DB69002B00F08180A7
:1020DC00424B5B6803F00C03082B61D07B68DB6917
:1020EC00022B46D13F4B00221A60FFF723FB3861CD
:1020FC0008E0FFF71FFB02463B69D31A022B01D9FC
:10210C00032367E0354B1B6803F00073002BF0D101
:10211C007B681B6AB3F5803F08D1304B5B6823F4B6
:10212C0000327B689B682D4913434B602B4B5B68DB
:10213C0023F474127B68196A7B685B6A0B4327492A
:10214C0013434B60274B01221A60FFF7F3FA3861F7
:10215C0008E0FFF7EFFA02463B69D31A022B01D9CC
:10216C00032337E01D4B1B6803F00073002BF0D0EA
:10217C002FE01C4B00221A60FFF7DCFA386108E0F4
:10218C00FFF7D8FA02463B69D31A022B01D9032375
:10219C0020E0124B1B6803F00073002BF0D118E009
:1021AC007B68DB69012B01D1012313E00B4B5B68CE
:1021BC00FB60FB6803F480327B681B6A9A4206D191
:1021CC00FB6803F470127B685B6A9A4201D00123AE
:1021DC0000E0002318461837BD4680BD00100240B1
:1021EC00007000406000424280B584B000AF78605F
:1021FC0039607B68002B01D10123D0E06A4B1B684E
:10220C0003F007033A689A4210D9674B1B6823F016
:10221C00070265493B6813430B60634B1B6803F073
:10222C0007033A689A4201D00123B8E07B681B6827
:10223C0003F00203002B20D07B681B6803F004031F
:10224C00002B05D0594B5B68584A43F4E06353604C
:10225C007B681B6803F00803002B05D0534B5B68AD
:10226C00524A43F460535360504B5B6823F0F002C6
:10227C007B689B684D4913434B607B681B6803F07C
:10228C000103002B40D07B685B68012B07D1474BC7
:10229C001B6803F40033002B15D101237FE07B680E
:1022AC005B68022B07D1414B1B6803F00073002BBA
:1022BC0009D1012373E03D4B1B6803F00203002B93
:1022CC0001D101236BE0394B5B6823F003027B687F
:1022DC005B68364913434B60FFF72CFAF8600AE051
:1022EC00FFF728FA0246FB68D31A41F28832934270
:1022FC0001D9032353E02D4B5B6803F00C027B6880
:10230C005B689B009A42EBD1274B1B6803F00703D9
:10231C003A689A4210D2244B1B6823F007022249D8
:10232C003B6813430B60204B1B6803F007033A68B0
:10233C009A4201D0012332E07B681B6803F004034E
:10234C00002B08D0194B5B6823F4E0627B68DB68D8
:10235C00164913434B607B681B6803F00803002B82
:10236C0009D0124B5B6823F460527B681B69DB005D
:10237C000E4913434B6000F021F802460B4B5B688F
:10238C001B0903F00F030A49CB5C22FA03F3094A39
:10239C001360094B1B681846FFF78AF9002318468F
:1023AC001037BD4680BD00BF002002400010024027
:1023BC00EC2C00083C0000204000002080B487B0CA
:1023CC0000AF0023FB600023BB6000237B61002374
:1023DC007B6000233B611E4B5B68FB60FB6803F07A
:1023EC000C03042B02D0082B03D027E0194B3B61C4
:1023FC0027E0FB689B0C03F00F03174AD35C7B6050
:10240C00FB6803F48033002B10D0114B5B685B0C22
:10241C0003F00103114AD35CBB607B680D4A02FBDD
:10242C0003F2BB68B2FBF3F37B6104E07B680C4AFC
:10243C0002FB03F37B617B693B6102E0054B3B6173
:10244C0000BF3B6918461C37BD4680BC704700BFB7
:10245C000010024000127A00FC2C00080C2D000821
:10246C0000093D0080B485B000AF78600A4B1B6852
:10247C000A4AA2FB03235B0A7A6802FB03F3FB60A4
:10248C0000BFFB685A1EFA60002BF9D100BF00BFD9
:10249C001437BD4680BC70473C000020D34D621001
:1024AC0080B582B000AF78607B68002B01D101232E
:1024BC0041E07B6893F83D30DBB2002B06D17B68A2
:1024CC00002283F83C207868FFF75AF87B680222D8
:1024DC0083F83D207B681A687B68043319461046E4
:1024EC0000F06EFA7B68012283F846207B6801229B
:1024FC0083F83E207B68012283F83F207B68012211
:10250C0083F840207B68012283F841207B680122FC
:10251C0083F842207B68012283F843207B680122E8
:10252C0083F844207B68012283F845207B680122D4
:10253C0083F83D20002318460837BD4680BD0000B7
:10254C0080B485B000AF78607B6893F83D30DBB227
:10255C00012B01D0012335E07B68022283F83D205A
:10256C007B681B68DA687B681B6842F00102DA60E2
:10257C007B681B68164A934209D07B681B68B3F1D1
:10258C00804F04D07B681B68124A934211D17B6840
:10259C001B689B6803F00703FB60FB68062B10D0DD
:1025AC007B681B681A687B681B6842F001021A6022
:1025BC0007E07B681B681A687B681B6842F00102A5
:1025CC001A60002318461437BD4680BC704700BF04
:1025DC00002C01400004004080B582B000AF786050
:1025EC007B681B681B6903F00203022B22D17B68FA
:1025FC001B68DB6803F00203022B1BD17B681B6892
:10260C006FF002021A617B6801221A777B681B68E3
:10261C009B6903F00303002B03D0786800F0B4F936
:10262C0005E0786800F0A7F9786800F0B6F97B68E7
:10263C0000221A777B681B681B6903F00403042BC8
:10264C0022D17B681B68DB6803F00403042B1BD1CD
:10265C007B681B686FF004021A617B6802221A7790
:10266C007B681B689B6903F44073002B03D078686C
:10267C0000F08AF905E0786800F07DF9786800F0E0
:10268C008CF97B6800221A777B681B681B6903F046
:10269C000803082B22D17B681B68DB6803F0080356
:1026AC00082B1BD17B681B686FF008021A617B68D2
:1026BC0004221A777B681B68DB6903F00303002B89
:1026CC0003D0786800F060F905E0786800F053F901
:1026DC00786800F062F97B6800221A777B681B68C7
:1026EC001B6903F01003102B22D17B681B68DB687D
:1026FC0003F01003102B1BD17B681B686FF01002CA
:10270C001A617B6808221A777B681B68DB6903F403
:10271C004073002B03D0786800F036F905E0786838
:10272C0000F029F9786800F038F97B6800221A77F4
:10273C007B681B681B6903F00103012B0ED17B68BE
:10274C001B68DB6803F00103012B07D17B681B6856
:10275C006FF001021A617868FEF738FE7B681B681F
:10276C001B6903F08003802B0ED17B681B68DB6830
:10277C0003F08003802B07D17B681B686FF080020D
:10278C001A61786800F06BFA7B681B681B6903F0B0
:10279C004003402B0ED17B681B68DB6803F04003C1
:1027AC00402B07D17B681B686FF040021A61786878
:1027BC0000F0FCF87B681B681B6903F02003202BDE
:1027CC000ED17B681B68DB6803F02003202B07D13C
:1027DC007B681B686FF020021A61786800F036FA8B
:1027EC0000BF0837BD4680BD80B584B000AF7860AF
:1027FC0039600023FB737B6893F83C30012B01D1CB
:10280C000223B4E07B68012283F83C207B6802221F
:10281C0083F83D207B681B689B68BB60BB6823F01A
:10282C007703BB60BB6823F47F43BB607B681B688A
:10283C00BA689A603B681B68B3F5005F3ED0B3F58D
:10284C00005F00F28780B3F5805F00F08680B3F5FF
:10285C00805F7FD8702B1AD0702B7BD8602B50D018
:10286C00602B77D8502B3CD0502B73D8402B58D0A2
:10287C00402B6FD8302B64D0302B6BD8202B60D0F2
:10288C00202B67D8002B5CD0102B5AD062E07B68D1
:10289C0018683B6899683B685A683B68DB6800F0CD
:1028AC005EF97B681B689B68BB60BB6843F0770371
:1028BC00BB607B681B68BA689A604FE07B681868DD
:1028CC003B6899683B685A683B68DB6800F047F9DD
:1028DC007B681B689A687B681B6842F480429A602C
:1028EC003CE07B6818683B6859683B68DB681A46B3
:1028FC0000F0BEF87B681B685021184600F015F9F3
:10290C002CE07B6818683B6859683B68DB681A46A2
:10291C0000F0DCF87B681B686021184600F005F9B4
:10292C001CE07B6818683B6859683B68DB681A4692
:10293C0000F09EF87B681B684021184600F0F5F803
:10294C000CE07B681A683B681B681946104600F05F
:10295C00ECF803E00123FB7300E000BF7B6801226D
:10296C0083F83D207B68002283F83C20FB7B1846D3
:10297C001037BD4680BD80B483B000AF786000BF17
:10298C000C37BD4680BC704780B483B000AF786014
:10299C0000BF0C37BD4680BC704780B483B000AF1D
:1029AC00786000BF0C37BD4680BC704780B483B0E4
:1029BC0000AF786000BF0C37BD4680BC704700008C
:1029CC0080B485B000AF786039607B681B68FB60B1
:1029DC007B68254A934207D07B68B3F1804F03D0C4
:1029EC007B68224A934208D1FB6823F07003FB609A
:1029FC003B685B68FA681343FB607B681A4A934236
:102A0C0007D07B68B3F1804F03D07B68174A9342A1
:102A1C0008D1FB6823F44073FB603B68DB68FA6801
:102A2C001343FB60FB6823F080023B685B69134334
:102A3C00FB607B68FA681A603B689A687B68DA62AC
:102A4C003B681A687B689A627B68074A934203D199
:102A5C003B681A697B681A637B6801225A6100BF64
:102A6C001437BD4680BC7047002C01400004004068
:102A7C0080B487B000AFF860B9607A60FB681B6AFD
:102A8C007B61FB681B6A23F00102FB681A62FB681E
:102A9C009B693B613B6923F0F0033B617B681B0145
:102AAC003A6913433B617B6923F00A037B617A69C2
:102ABC00BB6813437B61FB683A699A61FB687A696E
:102ACC001A6200BF1C37BD4680BC704780B487B00B
:102ADC0000AFF860B9607A60FB681B6A7B61FB68C9
:102AEC001B6A23F01002FB681A62FB689B693B614E
:102AFC003B6923F470433B617B681B033A691343C6
:102B0C003B617B6923F0A0037B61BB681B017A6985
:102B1C0013437B61FB683A699A61FB687A691A62B4
:102B2C0000BF1C37BD4680BC704780B485B000AF79
:102B3C00786039607B689B68FB60FB6823F07003EE
:102B4C00FB603A68FB68134343F00703FB607B6848
:102B5C00FA689A6000BF1437BD4680BC704780B4D9
:102B6C0087B000AFF860B9607A603B60FB689B6827
:102B7C007B617B6923F47F437B613B681A027B6832
:102B8C001A43BB6813437A6913437B61FB687A6908
:102B9C009A6000BF1C37BD4680BC704780B485B0BE
:102BAC0000AF786039607B6893F83C30012B01D121
:102BBC00022341E07B68012283F83C207B680222DF
:102BCC0083F83D207B681B685B68FB607B681B6837
:102BDC009B68BB60FB6823F07003FB603B681B6861
:102BEC00FA681343FB607B681B68FA685A607B6861
:102BFC001B68144A934209D07B681B68B3F1804F61
:102C0C0004D07B681B68104A93420CD1BB6823F03C
:102C1C008003BB603B685B68BA681343BB607B682E
:102C2C001B68BA689A607B68012283F83D207B6838
:102C3C00002283F83C20002318461437BD4680BC84
:102C4C00704700BF002C01400004004080B483B0EA
:102C5C0000AF786000BF0C37BD4680BC704780B4B5
:102C6C0083B000AF786000BF0C37BD4680BC7047A6
:102C7C0070B500260C4D0D4C641BA410A64209D156
:102C8C0000F022F800260A4D0A4C641BA410A64240
:102C9C0005D170BD55F8043B98470136EEE755F861
:102CAC00043B98470136F2E7102D0008102D000860
:102CBC00102D0008142D000803460244934200D145
:102CCC00704703F8011BF9E7F8B500BFF8BC08BC66
:102CDC009E467047F8B500BFF8BC08BC9E467047CE
:102CEC0000000000000000000102030406070809B0
:102CFC0002030405060708090A0B0C0D0E0F101031
:042D0C0001020000C0
:042D10003101000885
:042D14000D010008A5
:102D180001000000010000000100000001000000A7
:102D28000100000001000000010000000100000097
:102D38000100000001000000010000000100000087
:102D48000500000003000000020000000024F40059
:082D5800100000000100000062
:040000050800164594
:00000001FF
